:1000000023C032C031C030C02FC02EC02DC02CC084
:100010002BC02AC029C04AC127C026C025C024C081
:1000200023C022C021C020C01FC01EC01DC01CC0D4
:100030001BC01AC019C018C017C016C0010204089E
:10004000102040800402010811241FBECFEFD2E02F
:10005000DEBFCDBF21E0A0E0B1E001C01D92A9301C
:10006000B207E1F76DD119C2CBCFCF93DF93E82F61
:10007000F0E0E45CFF4FE491A7E3B0E0C2E6D0E03B
:10008000883020F4AAE3B0E0C3E6D0E09FB7F8944C
:1000900028818E2F8095822388838C91E82BEC9386
:1000A0009FBFDF91CF910895CF93DF93E82FF0E0CA
:1000B000E45CFF4FE491883078F4843041F480B7F9
:1000C0008F7380BFCBE3D0E0A3E6B0E011C08530F2
:1000D000F9F480B78F7CF5CF92E08630D9F48FB5F4
:1000E0008F738FBD913071F3C8E3D0E0A2E6B0E02A
:1000F0009E2F90952FB7611120C0F8948881892395
:1001000088838C9189238C932FBFDF91CF910895A1
:1001100091E0E3CF833019F48FB58F7CE2CF883044
:1001200031F48091CA008F738093CA00DBCF87308F
:10013000C9F68091CA008F7CF7CFF8948881E82BAC
:10014000E883DFCF0F931F93CF93C82F8B018DDFF1
:100150000115110531F460E08C2FCF911F910F91A3
:10016000A3CF0F3F110514F061E0F6CFC43049F47E
:1001700080B78F73806880BF06BFCF911F910F91AA
:100180000895C53031F480B78F7C806280BF0CBF8A
:10019000F4CFC63051F48FB58F7380688FBD8FB7A1
:1001A000F8941BBD0ABD8FBFE8CFC33049F48FB5AB
:1001B0008F7C80628FBD8FB7F89419BD08BDF3CFD7
:1001C000C83069F48091CA008F7380688093CA0038
:1001D0008FB7F8941093C5000093C400E4CFC730E4
:1001E00069F48091CA008F7C80628093CA008FB7C7
:1001F000F8941093C3000093C200D5CF00381105C6
:100200000CF0B2CFA8CF3FB7F89480910501909140
:100210000601A0910701B091080122B708B600FEBF
:1002200005C02F3F19F00196A11DB11D3FBFBA2F88
:10023000A92F982F8827BC01CD01620F711D811D48
:10024000911D43E0660F771F881F991F4A95D1F7CC
:100250000895CF92DF92EF92FF92CF93DF93D3DF97
:10026000EB018AE0C82ED12CE12CF12CCCDF6C1BE9
:100270007D0B683E7340A0F0C114D104E104F10489
:1002800039F4DF91CF91FF90EF90DF90CF900895F8
:1002900081E0C81AD108E108F108C851DC4FE6CF67
:1002A000C114D104E104F10409F7EBCF1F920F92BE
:1002B0000FB60F9211242F933F938F939F93AF9379
:1002C000BF938091010190910201A0910301B0912F
:1002D00004013091000126E0230F2D3768F129E851
:1002E000230F0396A11DB11D2093000180930101EE
:1002F00090930201A0930301B09304018091050142
:1003000090910601A0910701B09108010196A11DED
:10031000B11D8093050190930601A0930701B0934E
:100320000801BF91AF919F918F913F912F910F90B5
:100330000FBE0F901F9018950296A11DB11DD4CF2E
:1003400081E2E1E0F0E08093570084918150809356
:1003500074000000789480B7836080BF83B7877F84
:1003600083BF83B7887F836083BF89B7816089BF7C
:100370008091C900887F8093C9008091CA008C7FDA
:1003800081608093CA008091C900877E8093C900F4
:100390008091C900887F83608093C9008EB5887F73
:1003A0008EBD8FB58C7F81608FBD8EB5877E8EBDF3
:1003B0008EB5887F83608EBD80E18093670084EA7C
:1003C000809368008CEF8093660085B1887F86609B
:1003D00085B92F9A80E049DE81E047DE82E045DE84
:1003E00083E043DE84E041DE85E03FDE86E03DDE03
:1003F00087E03BDE88E039DE89E037DE8AE035DE03
:1004000000E011E0D0E0C0E0BE0183E09BDEBE0171
:1004100084E098DEBE0185E095DEBE0186E092DED6
:10042000B8016C1B7D0B87E08DDEBE0188E08ADEA3
:10043000BE0189E087DEBE018AE084DE0ADF219604
:10044000C11581E0D80701F7BE0180E07BDEBE0167
:1004500081E078DEBE0182E075DEBE0183E072DEFF
:10046000BE0184E06FDEBE0185E06CDEBE0186E089
:1004700069DEB8016C1B7D0B87E064DEBE0188E09D
:1004800061DEBE0189E05EDEBE018AE05BDEE1DEA8
:0E0490002197C130D105C1F6B5CFF894FFCF4A
:00000001FF
