:1000000024C048C047C046C045C044C043C042C0E9
:1000100041C040C03FC053C53DC03CC03BC03AC0DA
:1000200039C038C037C036C035C034C033C032C024
:1000300031C030C02FC02EC02DC08BC501020408B6
:100040001020408004020108B80611241FBECFEF23
:10005000D2E0DEBFCDBF11E0A0E0B1E0E0EAF1E127
:1000600002C005900D92A033B107D9F722E0A0E3BA
:10007000B1E001C01D92A434B207E1F710E0C5E27F
:10008000D0E003C02197FE0183D8C432D107D1F755
:1000900086D684C8B5CFE4E4F0E0E4919091CA003C
:1000A0009F739093CA009E2F909581110CC02FB71B
:1000B000F89488B3892388BB809162009823909339
:1000C00062002FBF08958FB7F89428B3E22BE8BBE6
:1000D000209162009223909362008FBF0895CF9386
:1000E000DF93E82FF0E0E45CFF4FE4912BE330E096
:1000F000AAE3B0E0C3E6D0E0883030F028E330E097
:10010000A7E3B0E0C2E6D0E09E2F9095623081F484
:100110004FB7F8948C9189238C93D9018C918E2BB5
:100120008C938881E82BE8834FBFDF91CF910895AE
:100130002FB7F8948881892388838C91E82BEC93DE
:100140002FBFF3CF3FB7F8948091360190913701DC
:10015000A0913801B091390122B708B600FE05C060
:100160002F3F19F00196A11DB11D3FBFBA2FA92F36
:10017000982F8827BC01CD01620F711D811D911D33
:1001800043E0660F771F881F991F4A95D1F708959E
:10019000CF92DF92EF92FF92CF93DF936B017C01BE
:1001A000D1DFEB01CFDF6C1B7D0B683E7340A0F00D
:1001B000C114D104E104F10439F4DF91CF91FF902F
:1001C000EF90DF90CF90089581E0C81AD108E10840
:1001D000F108C851DC4FE6CFC114D104E104F104A9
:1001E00009F7EBCF2FB7F89460913201709133018A
:1001F00080913401909135012FBF0895CF93DF9303
:10020000DC011C96ED91FC9126A137A1203231052D
:1002100010F5A6A1B7A1C6A1D7A120E230E02A1B04
:100220003B0B4217530708F49A01DB01EC0FFD1F4B
:10023000B9016E0F7F1FE617F70719F04D91419333
:10024000FACFDC011C96ED91FC9186A197A1280FB5
:10025000391F37A326A3DF91CF910895DC011C96A7
:10026000ED91FC9186A197A1809768F486A197A152
:100270009C012F5F3F4F37A326A3E80FF91F608330
:1002800081E090E0089590E080E008950895DC0119
:100290001C96ED91FC9120A131A182A193A1281778
:1002A000390738F480A191A1E80FF91F808190E00F
:1002B00008958FEF9FEF0895DC011C96ED91FC915E
:1002C00020A131A182A193A12817390760F480A150
:1002D00091A19C012F5F3F4F31A320A3E80FF91F8D
:1002E000808190E008958FEF9FEF0895DC011C96C8
:1002F000ED91FC9182A193A120A131A1821B930BCE
:100300000895CF93DF936EDFD0E0C0E0809130019D
:100310008C0F9D2F911D4E977CF4E0913001EC0FD6
:10032000FD2FF11DE050FF4F608185E392E096DFE5
:100330002196C430D10551F7809130018430E0F02E
:10034000809130018C30C0F4409130012091030144
:100350004450550B81E090E002C0880F991F4A95E8
:10036000E2F780959095822380930301E09130011C
:10037000F0E0E050FF4F1082DF91CF91089580911F
:100380001A0180910D018B3F18F08AEF80930D01C7
:1003900080910D01853018F485E080930D018091E6
:1003A0000E0190910F018436910530F484E690E0BF
:1003B00090930F0180930E0180910E0190910F0197
:1003C0008938934130F088E893E190930F0180934E
:1003D0000E0180911001909111018C32914030F406
:1003E0008CE291E0909311018093100180911001B3
:1003F000909111018131974230F080E197E2909322
:1004000011018093100120910E0130910F01809114
:100410001001909111018217930730F48AEF90E058
:1004200090930F0180930E012091100130911101E2
:1004300080910E0190910F012817390750F4809197
:100440000E0190910F01880F991F909311018093D5
:1004500010010895CF92DF92EF92FF920F931F93B6
:10046000CF93DF93082F162FEA01BCDE6B017C01CE
:10047000202F30E0C90169E170E079D6FC01E65C2B
:10048000FE4FCC0EDD1EE11CF11CC282D382E48241
:10049000F582D783C683118315861486108611864C
:1004A00012861386138A128A16861786108A118A74
:1004B0001082DF91CF911F910F91FF90EF90DF900D
:1004C000CF90089590E0883078F4FC01E759FD4F13
:1004D000099407C013C018C01DC022C027C02CC07B
:1004E00031C0662349F0C09A69E170E040D6865C6D
:1004F0009E4FFC0110820895C098F6CF662311F03C
:10050000C19AF2CFC198F0CF662311F0C29AECCF16
:10051000C298EACF662311F0DF9AE6CFDF98E4CFE6
:10052000662311F0DB9AE0CFDB98DECF662311F073
:10053000DA9ADACFDA98D8CF662311F0D99AD4CFE5
:10054000D998D2CF662311F0D89ACECFD898CCCFF5
:10055000883048F5E82FF0E0E155FD4F099407C0D9
:1005600009C00CC010C014C018C019C01AC086B38E
:100570008170089586B386958170089586B382FB55
:10058000882780F9089589B3881F8827881F0895D0
:1005900089B383FB882780F9089589B3F0CF89B3A5
:1005A000EACF89B3E5CF0895CF93C82FE82FF0E0C5
:1005B000883070F4E252FD4F62E0099407C015C024
:1005C00016C017C018C019C01AC01BC08AE087DD4A
:1005D00080910C0121E030E001C0220FCA95EAF7BA
:1005E000822B80930C01CF91089589E0F0CF88E0B1
:1005F000EECF87E0ECCF83E0EACF82E0E8CF81E086
:10060000E6CF80E0E4CF0F931F93CF93C82F082F3E
:1006100010E0883078F4F801E05FFC4F61E0099465
:1006200007C020C021C022C023C024C025C026C0CE
:100630008AE055DD20910C0181E090E001C0880F37
:10064000CA95EAF78095822380930C01C80169E17D
:1006500070E08DD5865C9E4FFC011082CF911F917A
:100660000F91089589E0E5CF88E0E3CF87E0E1CFFF
:1006700083E0DFCF82E0DDCF81E0DBCF80E0D9CF48
:100680004FE150E070E060E080E091E04FD580E025
:1006900002CDCF93DF93CDB7DEB76F970FB6F89447
:1006A000DEBF0FBECDBF4FE150E070E060E0CE0195
:1006B00001962CD58A818130A9F48FE1FE01319613
:1006C000A0E0B1E001900D928A95E1F781E0E3DCD2
:1006D00056DE6F960FB6F894DEBF0FBECDBFDF912A
:1006E000CF91089588E18093000181E0809301011A
:1006F00083E0809302018AE080930D0184EF91E012
:1007000090930F0180930E018CED95E09093110171
:10071000809310018FE080931A0180E0BCDCB0DF91
:10072000D7CFFF920F931F93CF93DF93B2DFD0E029
:10073000C0E001E010E080910C01FC2E90E00C2E56
:1007400002C0959587950A94E2F780FF9EC08C2F92
:100750002BDF20910301C80101C0880FFA94EAF74A
:1007600080958223809303012196C830D10519F723
:10077000C3E0D0E010E000E080910C0190E0002E9A
:1007800002C0959587950A94E2F780FD08C061E064
:10079000802F98DE65E070E080E090E0F9DC0F5F8C
:1007A0001F4F0830110541F764E670E080E090E0EB
:1007B000EFDC10E000E080910C0190E0002E02C020
:1007C000959587950A94E2F780FD08C060E0802F38
:1007D00079DE65E070E080E090E0DADC0F5F1F4FCB
:1007E0000830110541F764E670E080E090E0D0DC6D
:1007F000219709F0BFCF80910001E0914102F09173
:100800004202880F8093A2001092A1008FEF80A770
:100810008CEB8093A50081E08093430288E494E010
:1008200096A785A781E891E090AB87A780910C01FE
:1008300090E00C2E02C0959587950A94E2F780FD12
:100840000AC044EF51E061E08C2F04DE62E370E007
:1008500080E090E09DDC2196C830D10539F71092F8
:1008600003011092040110920501109206011092EA
:100870000701109208011092090110920A01DF91FC
:10088000CF911F910F91FF9008958C2FBCDE61CF07
:100890008F929F92AF92BF92CF92DF92EF92FF9290
:1008A0000F931F93CF93DF938C019CDC85E392E041
:1008B00003DD8093300180913001803F09F053C007
:1008C00085E392E0F9DCC82F81FDDADEC0FDE1DED0
:1008D000C7FFE8C00AE010E0D0E0C0E080910C0162
:1008E00090E00C2E02C0959587950A94E2F780FD62
:1008F00008C061E08C2FE6DD64E670E080E090E007
:1009000047DC2196C830D10549F768EE73E080E0F6
:1009100090E03EDCD0E0C0E080910C0190E00C2E35
:1009200002C0959587950A94E2F780FD08C060E0C3
:100930008C2FC8DD64E670E080E090E029DC219631
:10094000C830D10549F70150110931F6DF91CF9137
:100950001F910F91FF90EF90DF90CF90BF90AF90DD
:100960009F908F90DECE809130018A3109F407DDAF
:10097000F12C01501109CF2DD0E0C017D107B4F5EB
:1009800085E392E099DC209130012C0F3D2F311D41
:100990002F31310538F590913001992321F0909154
:1009A00030019C3040F0E0913001EC0FFD2FF11D43
:1009B000E050FF4F8083809130018C3099F4D0E07B
:1009C000C0E020910C0130E08C2F0C2E02C0359538
:1009D00027950A94E2F720FF07C0E6DD2196C8308C
:1009E000D10579F7F394C7CF0EDEF8CF80913001AF
:1009F0008231B9F4C0901801D0901901009116010C
:100A000010911701E0901401F0901501609113010D
:100A1000C091120165FF16C062956170A6018C2F0E
:100A200019DD809130018A31E9F5DF91CF911F9175
:100A30000F91FF90EF90DF90CF90BF90AF909F907D
:100A40008F909DCC66FFEDCFCDDB4B015C018C2FF1
:100A500090E069E170E08BD3EC01C65CDE4F8C0C5A
:100A60009D1CA11CB11C8A829B82AC82BD82DF824C
:100A7000CE82FD86EC86B6DB6E0D7F1D811D911D3D
:100A8000688779878A879B871B8B0A8BABDB600F14
:100A9000711F811D911D6E877F87888B998B81E0E7
:100AA0008883BFCFDF91CF911F910F91FF90EF907F
:100AB000DF90CF90BF90AF909F908F9008951F923E
:100AC0000F920FB60F9211242F933F938F939F9302
:100AD000AF93BF938091320190913301A091340183
:100AE000B09135013091310126E0230F2D3768F1A7
:100AF00029E8230F0396A11DB11D20933101809396
:100B0000320190933301A0933401B0933501809169
:100B1000360190913701A0913801B09139010196C9
:100B2000A11DB11D8093360190933701A093380128
:100B3000B0933901BF91AF919F918F913F912F91C8
:100B40000F900FBE0F901F9018950296A11DB11D1A
:100B5000D4CF1F920F920FB60F9211242F933F9371
:100B60004F935F936F937F938F939F93AF93BF93B5
:100B7000CF93EF93FF93C091A3008C2F8C7019F14A
:100B80008FEF80932A0280912B0290912C029F7705
:100B900090932C0280932B028091A300846C80930D
:100BA000A300FF91EF91CF91BF91AF919F918F9152
:100BB0007F916F915F914F913F912F910F900FBE59
:100BC0000F901F901895C6FD28C080912B02909120
:100BD0002C0297FD22C0C7FF6FC0C1FFAFC020919C
:100BE000260230912702809128029091290228172D
:100BF000390708F0A1C080912602909127029C013C
:100C00002F5F3F4F30932702209326028E5F9D4F28
:100C1000FC0180818093A0004FC0C0FF66C080911E
:100C20002B0290912C0297FF29C080912B0290916A
:100C30002C022091A0009695982F8827979587954C
:100C400088279370822B90932C0280932B02E09143
:100C50002D02F0912E02309789F11092230210920A
:100C6000220260912A0280912B0290912C02099518
:100C7000811124C087E08093A40093CF8091A000CD
:100C800090E090932C0280932B0280912A028F5F38
:100C900080932A0280912B0290912C02897F9927C0
:100CA000803F9105A1F680912B0290912C029068D3
:100CB00090932C0280932B0283E0DDCFC1FF10C004
:100CC0001092290210922802E0913102F091320232
:100CD000309709F009951092270210922602ECCF66
:100CE0001092250210922402E7CFC1FF15C0E091B7
:100CF0003302F0913402309709F009958FEF809319
:100D00002A0280912B0290912C029F7790932C02C3
:100D100080932B0280E443CFE0912F02F0913002C8
:100D2000309761F3109223021092220280912402E4
:100D3000909125020995E2CF82E09DCF8091240217
:100D400090912502809790F4809124029091250241
:100D50009C012F5F3F4F3093250220932402209166
:100D6000A0008E5F9D4FFC012083A6CF86E083CF3D
:100D7000E5E3F2E01382128288EE93E0A0E0B0E0B7
:100D800084839583A683B78383E291E091838083F4
:100D900082E092E09587848710924302089581E271
:100DA000E1E0F0E0809357008491815080937400DB
:100DB0000000789480B7836080BF83B7877F83BF4C
:100DC00083B7887F836083BF89B7816089BF809143
:100DD000C900887F8093C9008091CA008C7F8160A0
:100DE0008093CA008091C900877E8093C90080915A
:100DF000C900887F83608093C9008EB5887F8EBDCF
:100E00008FB58C7F81608FBD8EB5877E8EBD8EB590
:100E1000887F83608EBD80E18093670084EA809341
:100E200068008CEF8093660085B1887F866085B905
:100E30002F9A77DC82E0B82E93E0A92ECC24C394BD
:100E4000D12C34E0932ECAE3D1E010E000E0809191
:100E50000C01F88090E0002E02C0959587950A94C9
:100E6000E2F780FFE7C022E0F21609F480C02F15F8
:100E700048F0FF2009F442C031E0F31609F456C0EF
:100E800018824CC083E0F81609F496C0E4E0FE1224
:100E9000F7CFA8D94A805B806C807D8020911001BB
:100EA00030911101AB01BC0144195509660977095C
:100EB000C901B0E0A0E0980120503F4F79018417AC
:100EC0009507A607B70708F095C0F901848183FD4F
:100ED0000FC0848188608483809103019601002E75
:100EE00001C0220F0A94EAF7822B809303011C8A27
:100EF00018821D8A1E8A1F8A188E10C0802F28DB38
:100F000081110CC01FD96D8B7E8B8F8B988FF80150
:100F1000E050FF4F148281E088831C8A0F5F1F4FCF
:100F200069960830110509F092CF8DCF0BD9209129
:100F30000D014D885E886F88788CAB01BC01441927
:100F4000550966097709822F90E0B0E0A0E0841788
:100F50009507A607B70710F7802FFADA811190CF0F
:100F6000B88240D96A837B838C839D83D7CF802FBF
:100F7000EFDA81111AC08C898111D0CFF801E050CD
:100F8000FF4F848180FDCACF8481816084838091FA
:100F900003019601002E01C0220F0A94EAF7822B6A
:100FA0008093030181E08C8BB9CFCCD86D8B7E8B85
:100FB0008F8B988FA882B2CFC5D820910D014D8814
:100FC0005E886F88788CAB01BC01441955096609AD
:100FD0007709822F90E0B0E0A0E084179507A6077C
:100FE000B70708F09BCF802FB3DA882309F487C0B6
:100FF000988294CFF7D820910E0130910F01AB0168
:10100000BC014419550966097709C901B0E0A0E09F
:10101000F70184179507A607B70730F4848182FD8E
:1010200067CF8481846057CF848181FD61CF8481C3
:10103000826051CFF1E0FF16E1F1FF16F8F022E0F7
:10104000F2121ECF60E0802F3DDACCD84E845F8450
:1010500068887988461657066806790608F054C0ED
:10106000C1D82C853D85620F731F811D911D688736
:1010700079878A879B8781E0898344C06981802F33
:1010800021DA8E819F81892B09F4FACEABD84A8070
:101090005B806C807D80461657066806790608F0EE
:1010A000EFCE1F821E821A821B821C821D82198231
:1010B000E7CE61E0802F06DA8E819F81892B51F087
:1010C00091D84A805B806C807D8046165706680602
:1010D000790638F387D8488459846A847B84461615
:1010E00057066806790668F47DD82A893B89620F1D
:1010F000731F811D911D6E877F87888B998BB882A6
:101100000DCF81E088830ACFF88208CFDC01CB01C4
:10111000FC01E199FECF06C0FFBBEEBBE09A319621
:101120000DB20D9241505040B8F70895DC01A40F64
:10113000B51F4150504040F0CB01840F951F2E91B8
:1011400005D041505040D8F70895262FE199FECFA1
:101150009FBB8EBBE09A01970DB2021639F01CBA04
:101160002DBB0FB6F894E29AE19A0FBE08950024C1
:10117000552704C0080E591F880F991F009729F0A2
:1011800076956795B8F37105B9F7802D952F089579
:10119000EE0FFF1F0590F491E02D0994F894FFCF16
:1011A0001801030000000000000000000005F40129
:1011B000DC05000000000000000000FFFFFFFF0052
:1011C0000000002E01FE0076015C0147014601008F
:00000001FF
