:1000000024C048C047C046C045C044C043C042C0E9
:1000100041C040C03FC031C53DC03CC03BC03AC0FC
:1000200039C038C037C036C035C034C033C032C024
:1000300031C030C02FC02EC02DC069C501020408D8
:100040001020408004020108960611241FBECFEF45
:10005000D2E0DEBFCDBF11E0A0E0B1E0E8EBF2E11D
:1000600002C005900D92A033B107D9F722E0A0E3BA
:10007000B1E001C01D92AC34B207E1F710E0C5E277
:10008000D0E003C02197FE010FD9C432D107D1F7C8
:1000900064D610C9B5CFCF93DF93E82FF0E0E45CCE
:1000A000FF4FE491883078F4843041F480B78F7347
:1000B00080BFCBE3D0E0A3E6B0E011C08530F9F417
:1000C00080B78F7CF5CF92E08630D9F48FB58F73EF
:1000D0008FBD913071F3C8E3D0E0A2E6B0E09E2F6F
:1000E00090952FB7611120C0F89488818923888367
:1000F0008C9189238C932FBFDF91CF91089591E04C
:10010000E3CF833019F48FB58F7CE2CF883031F4A0
:100110008091CA008F738093CA00DBCF8730C9F605
:100120008091CA008F7CF7CFF8948881E82BE88310
:10013000DFCFCF93DF93E82FF0E0E45CFF4FE49153
:100140002BE330E0AAE3B0E0C3E6D0E0883030F043
:1001500028E330E0A7E3B0E0C2E6D0E09E2F909520
:10016000623081F44FB7F8948C9189238C93D90134
:100170008C918E2B8C938881E82BE8834FBFDF9185
:10018000CF9108952FB7F8948881892388838C9123
:10019000E82BEC932FBFF3CF3FB7F8948091360153
:1001A00090913701A0913801B091390122B708B67A
:1001B00000FE05C02F3F19F00196A11DB11D3FBFE4
:1001C000BA2FA92F982F8827BC01CD01620F711D6E
:1001D000811D911D43E0660F771F881F991F4A9567
:1001E000D1F708952FB7F8946091320170913301DF
:1001F00080913401909135012FBF0895CF93DF9303
:10020000DC011C96ED91FC9126A137A1203231052D
:1002100010F5A6A1B7A1C6A1D7A120E230E02A1B04
:100220003B0B4217530708F49A01DB01EC0FFD1F4B
:10023000B9016E0F7F1FE617F70719F04D91419333
:10024000FACFDC011C96ED91FC9186A197A1280FB5
:10025000391F37A326A3DF91CF910895DC011C96A7
:10026000ED91FC9186A197A1809768F486A197A152
:100270009C012F5F3F4F37A326A3E80FF91F608330
:1002800081E090E0089590E080E008950895DC0119
:100290001C96ED91FC9120A131A182A193A1281778
:1002A000390738F480A191A1E80FF91F808190E00F
:1002B00008958FEF9FEF0895DC011C96ED91FC915E
:1002C00020A131A182A193A12817390760F480A150
:1002D00091A19C012F5F3F4F31A320A3E80FF91F8D
:1002E000808190E008958FEF9FEF0895DC011C96C8
:1002F000ED91FC9182A193A120A131A1821B930BCE
:100300000895BF92CF92DF92EF92FF920F931F93C7
:10031000CF93DF93B62E8A01C82FD0E0FE01E050C4
:10032000FF4F8481806184838481662379F18068B2
:10033000848358DF6B017C01CE016AE170E0A3D7B2
:10034000FC01E65CFE4FC00ED11EE11CF11CC38215
:10035000D482E582F68210870783B18212821686E4
:1003600015861186128613861486148A138A1786B8
:10037000108A118A128A1082DF91CF911F910F91FA
:10038000FF90EF90DF90CF90BF9008958F77D0CF00
:10039000CF93DF93D0E0C0E0809130018C0F9D2F90
:1003A000911D4F977CF4E0913001EC0FFD2FF11D72
:1003B000E050FF4F60818DE392E050DF2196C43022
:1003C000D10551F780913001843050F18091300196
:1003D0008C3030F580911B012091300190E0245049
:1003E000330B02C0959587952A95E2F780FF18C0D8
:1003F00040913001209103014450550B81E090E081
:1004000002C0880F991F4A95E2F780959095822344
:1004100080930301E0913001F0E0E050FF4F108243
:10042000DF91CF91089580911B0180910D018B3F49
:1004300018F08AEF80930D0180910D01853018F43A
:1004400085E080930D0180910E0190910F0184361B
:10045000910530F484E690E090930F0180930E01B3
:1004600080910E0190910F018938934130F088E816
:1004700093E190930F0180930E0180911001909170
:1004800011018C32914030F48CE291E09093110193
:100490008093100180911001909111018131974258
:1004A00030F080E197E29093110180931001209148
:1004B0000E0130910F01809110019091110182176E
:1004C000930730F48AEF90E090930F0180930E0130
:1004D000209110013091110180910E0190910F0136
:1004E0002817390750F480910E0190910F01880F61
:1004F000991F909311018093100108950F931F93FA
:10050000CF93082F10E08830F8F4C62FF801E65793
:10051000FD4F099407C01CC01DC01EC01FC020C0D5
:1005200021C022C08AE0B7DDC8016AE170E0ABD625
:10053000865C9E4FFC011082F801E050FF4F8481E1
:10054000CC23A1F080688483CF911F910F910895EF
:1005500089E0E9CF88E0E7CF87E0E5CF83E0E3CF2C
:1005600082E0E1CF81E0DFCF80E0DDCF8F77EBCF9E
:100570008150873060F4E82FF0E0E054FD4F09949B
:1005800009C00CC010C014C018C019C01AC086B36E
:100590008170089586B386958170089586B382FB35
:1005A000882780F9089589B3881F8827881F0895B0
:1005B00089B383FB882780F9089589B3F0CF89B385
:1005C000EACF89B3E5CF1F93CF93DF93182FC82FBE
:1005D000D0E0EFEFE80F62E08AE0E73068F4F0E0A7
:1005E000EC50FD4F62E0099406C019C01AC01BC050
:1005F0001CC01DC01EC089E09CDD80910C0121E063
:1006000030E001C0220F1A95EAF7822B80930C018B
:10061000C050DF4F1C82DF91CF911F91089588E079
:10062000EBCF87E0E9CF83E0E7CF82E0E5CF81E061
:10063000E3CF80E0E1CF1F93CF93DF93182FC82F34
:10064000D0E0EFEFE80F61E08AE0E73068F4F0E037
:10065000E45DFC4F61E0099406C023C024C025C0BE
:1006600026C027C028C089E064DD20910C0181E00C
:1006700090E001C0880F1A95EAF780958223809355
:100680000C01FE01E050FF4F1482CE016AE170E0E0
:10069000FAD5865C9E4FFC011082DF91CF911F91AD
:1006A000089588E0E1CF87E0DFCF83E0DDCF82E00F
:1006B000DBCF81E0D9CF80E0D7CF40E250E070E0DF
:1006C00060E080E091E0BED560E088E0E4CCCF93CC
:1006D000DF93CDB7DEB7A0970FB6F894DEBF0FBE9D
:1006E000CDBF40E250E070E060E0CE0101969AD5C7
:1006F0008A818130C9F480E2FE013196A0E0B1E048
:1007000001900D928A95E1F784E08093020161E007
:1007100088E0C1DC88DEA0960FB6F894DEBF0FBE7D
:10072000CDBFDF91CF91089588E18093000181E0F2
:100730008093010184E0809302018FEF80930C018C
:100740008AE080930D0184EF91E090930F018093F4
:100750000E018CED95E090931101809310018FE0D4
:1007600080931B0160E088E096DCA7DFD3CFFF9287
:100770000F931F93CF93DF93AADFD0E0C0E001E097
:1007800010E080910C01FC2E90E00C2E02C095959B
:1007900087950A94E2F780FF42C08C2F14DF2091E6
:1007A0000301C80101C0880FFA94EAF780958223FB
:1007B000809303012196C830D10519F7809100017B
:1007C000E0914902F0914A02880F8093A2001092B2
:1007D000A1008FEF80A78CEB8093A50081E0809330
:1007E0004B0282E194E096A785A788EC91E090AB5C
:1007F00087A7109203011092040110920501109234
:10080000060110920701109208011092090110923E
:100810000A01DF91CF911F910F91FF9008958C2FC6
:100820000ADFBDCF4F925F926F927F929F92AF92FD
:10083000BF92CF92DF92EF92FF920F931F93CF93CD
:10084000DF938C018DE392E037DD8093300180915E
:100850003001803FD1F48DE392E02EDDC82F81FD81
:100860002CDFC0FD34DFC7FFF8C0DF91CF911F91AF
:100870000F91FF90EF90DF90CF90BF90AF909F903F
:100880007F906F905F904F9072CF809130018B314D
:1008900009F4C9DDF12C01501109CF2DD0E0C017AA
:1008A000D107B4F58DE392E007DD209130012C0FE4
:1008B0003D2F311D2032310538F5909130019923BB
:1008C00021F0909130019C3040F0E0913001EC0F2C
:1008D000FD2FF11DE050FF4F8083809130018C305F
:1008E00099F4D0E0C0E020910C0130E08C2F0C2E68
:1008F00002C0359527950A94E2F720FF07C063DE12
:100900002196C830D10579F7F394C7CF94DEF8CF9C
:1009100080913001823111F50091190110911A0175
:10092000E0901701F0901801C0901501D0901601C9
:100930009090140160911301C0911201C83070F4BD
:10094000AC2EB12CF501E050FF4F148264FF1BC0A8
:10095000661F6627661FA8018C2FD3DC80913001AB
:100960008B3109F07AC0DF91CF911F910F91FF90E9
:10097000EF90DF90CF90BF90AF909F907F906F905F
:100980005F904F9050CD65FF31C084818062848339
:1009900029DC2B013C01C5016AE170E074D4EC0153
:1009A000C65CDE4F400E511E611C711C4B825C8286
:1009B0006D827E8218870F831A82DE86CD8612DCD6
:1009C0006C0D7D1D811D911D69877A878B879C87A2
:1009D000FC8AEB8A07DC6E0D7F1D811D911D6F87E0
:1009E000788B898B9A8B81E08883B8CF66FFB6CFEE
:1009F0008EEF8C0F833008F0B1CF992031F18481D4
:100A000080648483C5016AE170E03DD4EC01C65C7A
:100A1000DE4F83E08883E6DB600F711F811D911D2F
:100A20006B837C838D839E8318870F8319829A82C0
:100A30001E861D8619861A861B861C861C8A1B8AA2
:100A40001F86188A198A1A8A89CFA80160E08C2F1C
:100A500058DC60E08C2F52DD81CFDF91CF911F9168
:100A60000F91FF90EF90DF90CF90BF90AF909F904D
:100A70007F906F905F904F9008951F920F920FB6E6
:100A80000F9211242F933F938F939F93AF93BF9314
:100A90008091320190913301A0913401B0913501E0
:100AA0003091310126E0230F2D3768F129E8230F1B
:100AB0000396A11DB11D20933101809332019093C3
:100AC0003301A0933401B0933501809136019091A8
:100AD0003701A0913801B09139010196A11DB11DD6
:100AE0008093360190933701A0933801B093390178
:100AF000BF91AF919F918F913F912F910F900FBE1A
:100B00000F901F9018950296A11DB11DD4CF1F9272
:100B10000F920FB60F9211242F933F934F935F9331
:100B20006F937F938F939F93AF93BF93CF93EF93E5
:100B3000FF93C091A3008C2F8C7019F18FEF8093DD
:100B4000320280913302909134029F779093340265
:100B5000809333028091A300846C8093A300FF9163
:100B6000EF91CF91BF91AF919F918F917F916F91B5
:100B70005F914F913F912F910F900FBE0F901F905B
:100B80001895C6FD28C0809133029091340297FDDC
:100B900022C0C7FF6FC0C1FFAFC020912E023091AD
:100BA0002F0280913002909131022817390708F006
:100BB000A1C080912E0290912F029C012F5F3F4F88
:100BC00030932F0220932E02865F9D4FFC0180817F
:100BD0008093A0004FC0C0FF66C080913302909107
:100BE000340297FF29C08091330290913402209102
:100BF000A0009695982F88279795879588279370BA
:100C0000822B9093340280933302E0913502F0916D
:100C10003602309789F110922B0210922A026091CD
:100C2000320280913302909134020995811124C0DF
:100C300087E08093A40093CF8091A00090E09093F0
:100C4000340280933302809132028F5F80933202AC
:100C50008091330290913402897F9927803F9105DA
:100C6000A1F68091330290913402906890933402FF
:100C70008093330283E0DDCFC1FF10C010923102B8
:100C800010923002E0913902F0913A02309709F067
:100C9000099510922F0210922E02ECCF10922D0285
:100CA00010922C02E7CFC1FF15C0E0913B02F091FA
:100CB0003C02309709F009958FEF809332028091C2
:100CC0003302909134029F779093340280933302E1
:100CD00080E443CFE0913702F0913802309761F31E
:100CE00010922B0210922A0280912C0290912D02D8
:100CF0000995E2CF82E09DCF80912C0290912D0248
:100D0000809790F480912C0290912D029C012F5F8E
:100D10003F4F30932D0220932C022091A000865F3C
:100D20009D4FFC012083A6CF86E083CFEDE3F2E068
:100D30001382128288EE93E0A0E0B0E08483958372
:100D4000A683B78384E291E0918380838AE092E076
:100D50009587848710924B02089581E2E1E0F0E0EC
:100D600080935700849181508093740000007894A0
:100D700080B7836080BF83B7877F83BF83B7887F57
:100D8000836083BF89B7816089BF8091C900887FF4
:100D90008093C9008091CA008C7F81608093CA00D3
:100DA0008091C900877E8093C9008091C900887FA7
:100DB00083608093C9008EB5887F8EBD8FB58C7F90
:100DC00081608FBD8EB5877E8EBD8EB5887F836036
:100DD0008EBD80E18093670084EA809368008CEF89
:100DE0008093660085B1887F866085B92F9ABFDCC5
:100DF000BB24B39484E0A82E92E0992ECC24C39413
:100E0000D12CCAE3D1E010E000E0E02E80910C018B
:100E1000702EF88090E0002E02C0959587950A9478
:100E2000E2F780FFE6C022E0F21609F47FC02F153A
:100E300048F0FF2009F442C031E0F31609F455C030
:100E400018824BC083E0F81609F495C0E4E0FE1266
:100E5000F7CFC8D94B805C806D807E8020911001D7
:100E600030911101AB01BC0144195509660977099C
:100E7000C901B0E0A0E0980120503F4F79018417EC
:100E80009507A607B70708F094C0F901848183FD90
:100E90000FC0848188608483809103019601002EB5
:100EA00001C0220F0A94EAF7822B809303011D8A66
:100EB00018821E8A1F8A188E198E0FC0802F58DB49
:100EC00081110BC069D96E8B7F8B888F998FF80148
:100ED000E050FF4F1482B8821D8A0F5F1F4F6A9641
:100EE0000830110509F091CF8CCF56D920910D0112
:100EF0004E885F88688C798CAB01BC014419550918
:100F000066097709822F90E0B0E0A0E0841795078A
:100F1000A607B70710F7802F2BDB811191CF98829E
:100F200061D96B837C838D839E83D7CF802F20DB19
:100F3000811119C08D898111D0CFF801E050FF4F88
:100F4000848180FDCACF8481816084838091030184
:100F50009601002E01C0220F0A94EAF7822B80939B
:100F60000301BD8ABACF18D96E8B7F8B888F998F7A
:100F700083E08883B2CF10D920910D014E885F881D
:100F8000688C798CAB01BC01441955096609770955
:100F9000822F90E0B0E0A0E084179507A607B7077E
:100FA00008F09BCF802FE4DA882309F498C0A88248
:100FB00094CF18D920910E0130910F01AB01BC01E3
:100FC0004419550966097709C901B0E0A0E0F701A5
:100FD00084179507A607B70730F4848182FD68CF90
:100FE0008481846058CF848181FD62CF8481826056
:100FF00052CFF2E0FF1609F474C0FF1500F1FF2094
:1010000099F121E0F2121CCF8F819885892B09F488
:101010004EC0E8D82B813C814D815E812617370771
:101020004807590708F043C0F801E050FF4F148209
:1010300084818061848360E0802F60DA2FC033E098
:10104000F31609F46CC084E0F812FACE8A8181119B
:10105000D8C0F801E050FF4F1482848180618483FE
:1010600060E0802F4BDA21C06981802F47DA8F81C1
:101070009885892B09F4E4CEB5D84B805C806D80CF
:101080007E80461657066806790608F0D9CEF80124
:10109000E050FF4F148284818061848318861F8210
:1010A0001B821C821D821E8219821A82C9CE61E0B7
:1010B000872D24DA97D849845A846B847C84461619
:1010C00057066806790638F58DD82B893C89620F5A
:1010D000731F811D911D6F87788B898B9A8B9882E6
:1010E000FCCE60E0802F0ADA7DD84F84588869886A
:1010F0007A88461657066806790678F473D82D85DF
:101100003E85620F731F811D911D69877A878B87CA
:101110009C87B9821A82B882E0CEF882DECEFA804D
:10112000F1100CC0F801E050FF4F148284818061FF
:10113000848360E0802FE2D9198282CE8F819885E6
:10114000892B59F04FD84B805C806D807E8046168D
:1011500057066806790608F467CF33E0E31631F1E5
:1011600084E0E816D1F1E2E0EE1221CF61E088E000
:10117000E0D72FEFF21204C061E088E08CD70FC0F7
:101180008091CA008F7380688093CA002F2D30E051
:101190008FB7F8943093C5002093C4008FBFF80137
:1011A000E050FF4F84818068848301CF61E087E055
:1011B000C0D7EFEF61E087E0FE1601F38091CA002F
:1011C0008F7C80628093CA002F2D30E08FB7F89417
:1011D0003093C3002093C200E1CF61E083E0A9D740
:1011E000FFEFFF1203C061E083E0C8CF8FB58F7CB3
:1011F00080628FBD2F2D30E08FB7F89439BD28BDA8
:10120000CDCF8F819885892B09F4D1CEEBD74B8038
:101210005C806D807E80461657066806790608F069
:10122000C6CE02CFDC01CB01FC01E199FECF06C0A6
:10123000FFBBEEBBE09A31960DB20D92415050408B
:10124000B8F70895DC01A40FB51F4150504040F09D
:10125000CB01840F951F2E9105D041505040D8F7F7
:101260000895262FE199FECF9FBB8EBBE09A019790
:101270000DB2021639F01CBA2DBB0FB6F894E29AE3
:10128000E19A0FBE08950024552704C0080E591F87
:10129000880F991F009729F076956795B8F3710527
:1012A000B9F7802D952F0895EE0FFF1F0590F4914B
:0812B000E02D0994F894FFCF32
:1012B800180104000000000000000000FF05F40110
:1012C800DC0500000000000000000000FFFFFFFF39
:1012D800000000002E01FE0076015C014701460176
:00000001FF
